:100000000C942A000C94DB020C9404030C942D0332
:100010000C9447000C9436040C940D040C94470087
:100020000C94E4030C94BB030C9447000C948E03D3
:100030000C9447000C9447000C9447000C94470024
:100040000C9447000C9447000C9447000C94470014
:100050000C94470011241FBECFE5D8E0DEBFCDBF12
:1000600010E0A0E6B0E0E8E3FCE002C005900D92ED
:10007000A239B107D9F720E0A2E9B0E001C01D9292
:10008000AD3FB207E1F70E9493000C941A060C945E
:10009000000088E00E948B00089589E00E948B0098
:1000A0000895CF93DF93CDB7DEB760970FB6F8947E
:1000B000DEBF0FBECDBF78940E949A0488E0E1E6CF
:1000C000F0E0DE01119601900D928A95E1F788E04B
:1000D000E9E6F0E0DE01199601900D928A95E1F7CC
:1000E000CE0101960E94BD04CE0109960E94BD0476
:1000F0000E942F0560960FB6F894DEBF0FBECDBFED
:10010000DF91CF910895803220F40E94B90180E000
:10011000089582E00895803220F40E94000280E079
:10012000089581E008950E94510080E090E00895D4
:10013000982F9695969596958770613009F459C0D9
:1001400020F0623009F4A9C0FCC09130C9F028F059
:10015000923049F19330D1F1F6C04AB321E030E05A
:10016000B90102C0660F771F8A95E2F7CB01942F81
:10017000982B9ABB9BB3809589238BBB80E0089515
:1001800047B321E030E0B90102C0660F771F8A95BE
:10019000E2F7CB01942F982B97BB98B380958923D6
:1001A00088BB80E0089544B321E030E0B90102C08B
:1001B000660F771F8A95E2F7CB01942F982B94BB9B
:1001C00095B38095892385BB80E0089541B321E0F4
:1001D00030E0B90102C0660F771F8A95E2F7CB01C4
:1001E000942F982B91BB92B38095892382BB80E09A
:1001F00008959130C9F028F0923049F19330D1F14F
:10020000A4C04AB321E030E0B90102C0660F771FF5
:100210008A95E2F7CB018095942F98239ABB9BB3E4
:1002200089238BBB80E0089547B321E030E0B9011A
:1002300002C0660F771F8A95E2F7CB018095942F55
:10024000982397BB98B3892388BB80E0089544B373
:1002500021E030E0B90102C0660F771F8A95E2F70E
:10026000CB018095942F982394BB95B3892385BBAC
:1002700080E0089541B321E030E0B90102C0660F8B
:10028000771F8A95E2F7CB018095942F982391BB35
:1002900092B3892382BB80E008959130C9F028F0A1
:1002A000923049F19330D1F152C04AB321E030E0AD
:1002B000B90102C0660F771F8A95E2F7CB01962F2E
:1002C000909594239ABB9BB3892B8BBB80E00895B8
:1002D00047B321E030E0B90102C0660F771F8A956D
:1002E000E2F7CB01962F9095942397BB98B3892B77
:1002F00088BB80E0089544B321E030E0B90102C03A
:10030000660F771F8A95E2F7CB01962F909594237D
:1003100094BB95B3892B85BB80E0089541B321E060
:1003200030E0B90102C0660F771F8A95E2F7CB0172
:10033000962F9095942391BB92B3892B82BB80E03A
:10034000089581E0089581E0089581E0089581E0B5
:100350000895CF93C0E009C0EC2FF0E0EF58FF4FB5
:1003600060818C2F0E949800CF5FC032A8F3CF919C
:100370000895982F96959695969587709130A1F04F
:1003800028F09230F9F0933059F138C029B330E0B9
:10039000A90102C0559547958A95E2F7CA01817077
:1003A000FB01808380E0089526B330E0A90102C0FC
:1003B000559547958A95E2F7CA018170FB018083C4
:1003C00080E0089523B330E0A90102C05595479518
:1003D0008A95E2F7CA018170FB01808380E008956D
:1003E00020B330E0A90102C0559547958A95E2F700
:1003F000CA018170FB01808380E0089581E0089547
:10040000982F96959695969587709130A1F028F043
:100410009230F9F0933059F138C04BB321E030E01D
:10042000B90102C0660F771F8A95E2F7CB018427D6
:100430008BBB80E0089548B321E030E0B90102C0F1
:10044000660F771F8A95E2F7CB01842788BB80E08F
:10045000089545B321E030E0B90102C0660F771F6F
:100460008A95E2F7CB01842785BB80E0089542B3EB
:1004700021E030E0B90102C0660F771F8A95E2F7EC
:10048000CB01842782BB80E0089581E0089581300C
:1004900041F018F0823049F008958BB780648BBF2B
:1004A00008958BB780688BBF08958BB780628BBF30
:1004B0000895813049F120F0823009F449C008954F
:1004C000613069F028F0623089F06330B1F008954E
:1004D00085B78E7F85BF85B78D7F85BF089585B72A
:1004E000816085BF85B78D7F85BF089585B78E7F75
:1004F00085BF85B7826085BF089585B7816085BF58
:1005000085B7826085BF0895613069F028F0623058
:1005100089F06330B1F0089585B78B7F85BF85B7CB
:10052000877F85BF089585B7846085BF85B7877F3E
:1005300085BF089585B78B7F85BF85B7886085BFE8
:10054000089585B7846085BF85B7886085BF0895A5
:10055000623019F0633029F008C084B78F7B84BF04
:10056000089584B7806484BF089584B78F7B84BF67
:10057000089562E080E00E94590262E081E00E94FA
:10058000590262E082E00E9459020895813049F0E8
:1005900018F0823059F00895709397006093960098
:1005A000089570939500609394000895709393005C
:1005B0006093920008951F920F920FB60F9211242C
:1005C0002F933F934F935F936F937F938F939F935B
:1005D000AF93BF93EF93FF93E0919600F091970054
:1005E000309709F00995FF91EF91BF91AF919F91DD
:1005F0008F917F916F915F914F913F912F910F90CC
:100600000FBE0F901F9018951F920F920FB60F926A
:1006100011242F933F934F935F936F937F938F9307
:100620009F93AF93BF93EF93FF93E0919400F0916A
:100630009500309709F00995FF91EF91BF91AF9127
:100640009F918F917F916F915F914F913F912F91EA
:100650000F900FBE0F901F9018951F920F920FB61C
:100660000F9211242F933F934F935F936F937F9338
:100670008F939F93AF93BF93EF93FF93E09192007B
:10068000F0919300309709F00995FF91EF91BF9198
:10069000AF919F918F917F916F915F914F913F911A
:1006A0002F910F900FBE0F901F901895813069F019
:1006B00028F0823089F08330B1F0089583B78F7BC2
:1006C00083BF83B7877F83BF089583B7806483BF69
:1006D00083B7877F83BF089583B78F7B83BF83B73B
:1006E000886083BF089583B7806483BF83B78860C1
:1006F00083BF0895883040F493B7987F93BF93B732
:10070000892B83BF84E0089580E0089583B713BEEA
:1007100008959093A1008093A00008951F920F92D6
:100720000FB60F9211242F933F934F935F936F93C4
:100730007F938F939F93AF93BF93EF93FF93E0913A
:10074000A000F091A100309709F00995FF91EF9179
:10075000BF91AF919F918F917F916F915F914F91D9
:100760003F912F910F900FBE0F901F90189589B752
:10077000816089BF08951F920F920FB60F921124C6
:100780002F933F934F935F936F937F938F939F9399
:10079000AF93BF93EF93FF93E0919E00F0919F0082
:1007A000309709F00995FF91EF91BF91AF919F911B
:1007B0008F917F916F915F914F913F912F910F900A
:1007C0000FBE0F901F9018951F920F920FB60F92A9
:1007D00011242F933F934F935F936F937F938F9346
:1007E0009F93AF93BF93EF93FF93E0919C00F091A1
:1007F0009D00309709F00995FF91EF91BF91AF915E
:100800009F918F917F916F915F914F913F912F9128
:100810000F900FBE0F901F9018951F920F920FB65A
:100820000F9211242F933F934F935F936F937F9376
:100830008F939F93AF93BF93EF93FF93E0919A00B1
:10084000F0919B00309709F00995FF91EF91BF91CE
:10085000AF919F918F917F916F915F914F913F9158
:100860002F910F900FBE0F901F9018951F920F920F
:100870000FB60F9211242F933F934F935F936F9373
:100880007F938F939F93AF93BF93EF93FF93E091E9
:100890009800F0919900309709F00995FF91EF9138
:1008A000BF91AF919F918F917F916F915F914F9188
:1008B0003F912F910F900FBE0F901F901895809130
:1008C000A200843641F52091F4003091F50040916A
:1008D000F6005091F7006091F8007091F900809156
:1008E000FA009091FB00A1E00E9402062093F40020
:1008F0003093F5004093F6005093F7006093F800B2
:100900007093F9008093FA009093FB001092A2007C
:1009100081E08093F3008091A2008F5F8093A2001A
:1009200008958091FC00813021F4109260000E94B3
:10093000860308958091FC0081111DC00E9456031A
:100940000E94B7038FE594E00E9489030E94A901E9
:100950000E94B90280E00E94470262E080E00E94AB
:10096000590261E974E080E00E94C6028091FC00B7
:100970008F5F8093FC0080E00895FC018091FC0073
:10098000813009F046C0309709F445C084819581D3
:10099000892B71F086819781892B61F08281938107
:1009A0000B9750F4808191810B9740F483E007C04E
:1009B00082E005C082E003C082E001C082E090E0F6
:1009C00012C0A92FB0E0AA0FBB1FAA0FBB1FAA0F0E
:1009D000BB1FAD55BF4F4D915C91208131814217B6
:1009E000530721F09F5F9A3060F301C082E08330AB
:1009F00099F4A081B181AA0FBB1FAA0FBB1FAA0F38
:100A0000BB1FAD55BF4F98E001900D929A95E1F74D
:100A1000089581E0089582E00895CF93DF931F92B7
:100A2000CDB7DEB7BE016F5F7F4F88E10E948300C4
:100A30008981811110C083E00E947A0381E0809354
:100A4000600006C0BE016F5F7F4F88E10E94830097
:100A500089818823B9F30F90DF91CF9108959F92F8
:100A6000AF92BF92CF92DF92EF92FF920F931F93BC
:100A7000CF93DF938091FC00813009F058C083E070
:100A80000E947A030E940D058091F3008130D1F716
:100A9000809160008130B1F742C0892D90E0FC0167
:100AA000EE0FFF1FEE0FFF1FEE0FFF1FED55FF4F65
:100AB000C681D781209789F1880F991F880F991FC8
:100AC000880F991FFC01ED55FF4F04811581B091EE
:100AD000F400A091F500F091F600E091F7009091FC
:100AE000F8008091F900A02EB12EC12CD12CE12C60
:100AF000F12C00E010E02B2F3A2F4F2F5E2F692FA3
:100B0000782F8091FA009091FB000E94A305A0E04D
:100B10000E940E0611F4FE010995939401C0912CD8
:100B2000F9E0F91508F0B9CF1092F300ABCFDF91DF
:100B3000CF911F910F91FF90EF90DF90CF90BF90DA
:100B4000AF909F900895689401C0E8948F929F920F
:100B5000CF93DF930E94B105DF91CF919F908F904B
:100B6000089588249924F401E401B0E49F93AA270E
:100B70009A158B049C04ED05FE05CF05D007A1074F
:100B800098F4AD2FDC2FCF2FFE2FE92D982C892E36
:100B9000982F872F762F652F542F432F322F222700
:100BA000B85031F7BF9127C01B2EBF91BB27220F32
:100BB000331F441F551F661F771F881F991F881CEE
:100BC000991CEE1FFF1FCC1FDD1FAA1FBB1F8A141D
:100BD0009B04EC05FD05CE05DF05A007B10748F035
:100BE0008A189B08EC09FD09CE09DF09A00BB10B9F
:100BF00021601A94E1F62EF49401AF01BE01CD01FB
:100C0000000C08950024A7FD00942A0F301D401DFC
:100C1000501D601D701D801D901D08950024A7FDAE
:100C200000942A17300540055005600570058005C1
:080C300090050895F894FFCF30
:100C38000101000100030049000200020005004D07
:100C48000001010101010101010000000101010190
:100C5800010101010101010101020102010101017A
:020C6800010089
:00000001FF
